{
	"contracts/StakeTB.sol": {
		"StakeTB": {
			"abi": [
				{
					"inputs": [
						{
							"internalType": "address",
							"name": "token",
							"type": "address"
						}
					],
					"stateMutability": "nonpayable",
					"type": "constructor"
				},
				{
					"inputs": [],
					"name": "harvest",
					"outputs": [],
					"stateMutability": "nonpayable",
					"type": "function"
				},
				{
					"inputs": [
						{
							"internalType": "uint256",
							"name": "amount",
							"type": "uint256"
						}
					],
					"name": "stake",
					"outputs": [],
					"stateMutability": "nonpayable",
					"type": "function"
				},
				{
					"inputs": [],
					"name": "stakedAmount",
					"outputs": [
						{
							"internalType": "uint256",
							"name": "",
							"type": "uint256"
						}
					],
					"stateMutability": "view",
					"type": "function"
				},
				{
					"inputs": [],
					"name": "unstake",
					"outputs": [],
					"stateMutability": "nonpayable",
					"type": "function"
				}
			],
			"devdoc": {
				"kind": "dev",
				"methods": {},
				"version": 1
			},
			"evm": {
				"assembly": "    /* \"contracts/StakeTB.sol\":117:1786  contract StakeTB{... */\n  mstore(0x40, 0x80)\n    /* \"contracts/StakeTB.sol\":244:254  1 * 10**16 */\n  0x2386f26fc10000\n    /* \"contracts/StakeTB.sol\":213:254  uint256 _rewardRatePerMinute = 1 * 10**16 */\n  0x02\n  sstore\n    /* \"contracts/StakeTB.sol\":342:408  constructor(address token) {... */\n  callvalue\n  dup1\n  iszero\n  tag_1\n  jumpi\n  0x00\n  dup1\n  revert\ntag_1:\n  pop\n  mload(0x40)\n  sub(codesize, bytecodeSize)\n  dup1\n  bytecodeSize\n  dup4\n  codecopy\n  dup2\n  dup2\n  add\n  0x40\n  mstore\n  dup2\n  add\n  swap1\n  tag_2\n  swap2\n  swap1\n  tag_3\n  jump\t// in\ntag_2:\n    /* \"contracts/StakeTB.sol\":395:400  token */\n  dup1\n    /* \"contracts/StakeTB.sol\":379:385  _token */\n  0x00\n  dup1\n    /* \"contracts/StakeTB.sol\":379:401  _token = IERC20(token) */\n  0x0100\n  exp\n  dup2\n  sload\n  dup2\n  0xffffffffffffffffffffffffffffffffffffffff\n  mul\n  not\n  and\n  swap1\n  dup4\n  0xffffffffffffffffffffffffffffffffffffffff\n  and\n  mul\n  or\n  swap1\n  sstore\n  pop\n    /* \"contracts/StakeTB.sol\":342:408  constructor(address token) {... */\n  pop\n    /* \"contracts/StakeTB.sol\":117:1786  contract StakeTB{... */\n  jump(tag_6)\n    /* \"#utility.yul\":7:150   */\ntag_8:\n    /* \"#utility.yul\":64:69   */\n  0x00\n    /* \"#utility.yul\":95:101   */\n  dup2\n    /* \"#utility.yul\":89:102   */\n  mload\n    /* \"#utility.yul\":80:102   */\n  swap1\n  pop\n    /* \"#utility.yul\":111:144   */\n  tag_10\n    /* \"#utility.yul\":138:143   */\n  dup2\n    /* \"#utility.yul\":111:144   */\n  tag_11\n  jump\t// in\ntag_10:\n    /* \"#utility.yul\":7:150   */\n  swap3\n  swap2\n  pop\n  pop\n  jump\t// out\n    /* \"#utility.yul\":156:507   */\ntag_3:\n    /* \"#utility.yul\":226:232   */\n  0x00\n    /* \"#utility.yul\":275:277   */\n  0x20\n    /* \"#utility.yul\":263:272   */\n  dup3\n    /* \"#utility.yul\":254:261   */\n  dup5\n    /* \"#utility.yul\":250:273   */\n  sub\n    /* \"#utility.yul\":246:278   */\n  slt\n    /* \"#utility.yul\":243:362   */\n  iszero\n  tag_13\n  jumpi\n    /* \"#utility.yul\":281:360   */\n  tag_14\n  tag_15\n  jump\t// in\ntag_14:\n    /* \"#utility.yul\":243:362   */\ntag_13:\n    /* \"#utility.yul\":401:402   */\n  0x00\n    /* \"#utility.yul\":426:490   */\n  tag_16\n    /* \"#utility.yul\":482:489   */\n  dup5\n    /* \"#utility.yul\":473:479   */\n  dup3\n    /* \"#utility.yul\":462:471   */\n  dup6\n    /* \"#utility.yul\":458:480   */\n  add\n    /* \"#utility.yul\":426:490   */\n  tag_8\n  jump\t// in\ntag_16:\n    /* \"#utility.yul\":416:490   */\n  swap2\n  pop\n    /* \"#utility.yul\":372:500   */\n  pop\n    /* \"#utility.yul\":156:507   */\n  swap3\n  swap2\n  pop\n  pop\n  jump\t// out\n    /* \"#utility.yul\":594:690   */\ntag_19:\n    /* \"#utility.yul\":631:638   */\n  0x00\n    /* \"#utility.yul\":660:684   */\n  tag_21\n    /* \"#utility.yul\":678:683   */\n  dup3\n    /* \"#utility.yul\":660:684   */\n  tag_22\n  jump\t// in\ntag_21:\n    /* \"#utility.yul\":649:684   */\n  swap1\n  pop\n    /* \"#utility.yul\":594:690   */\n  swap2\n  swap1\n  pop\n  jump\t// out\n    /* \"#utility.yul\":696:822   */\ntag_22:\n    /* \"#utility.yul\":733:740   */\n  0x00\n    /* \"#utility.yul\":773:815   */\n  0xffffffffffffffffffffffffffffffffffffffff\n    /* \"#utility.yul\":766:771   */\n  dup3\n    /* \"#utility.yul\":762:816   */\n  and\n    /* \"#utility.yul\":751:816   */\n  swap1\n  pop\n    /* \"#utility.yul\":696:822   */\n  swap2\n  swap1\n  pop\n  jump\t// out\n    /* \"#utility.yul\":951:1068   */\ntag_15:\n    /* \"#utility.yul\":1060:1061   */\n  0x00\n    /* \"#utility.yul\":1057:1058   */\n  dup1\n    /* \"#utility.yul\":1050:1062   */\n  revert\n    /* \"#utility.yul\":1074:1196   */\ntag_11:\n    /* \"#utility.yul\":1147:1171   */\n  tag_28\n    /* \"#utility.yul\":1165:1170   */\n  dup2\n    /* \"#utility.yul\":1147:1171   */\n  tag_19\n  jump\t// in\ntag_28:\n    /* \"#utility.yul\":1140:1145   */\n  dup2\n    /* \"#utility.yul\":1137:1172   */\n  eq\n    /* \"#utility.yul\":1127:1190   */\n  tag_29\n  jumpi\n    /* \"#utility.yul\":1186:1187   */\n  0x00\n    /* \"#utility.yul\":1183:1184   */\n  dup1\n    /* \"#utility.yul\":1176:1188   */\n  revert\n    /* \"#utility.yul\":1127:1190   */\ntag_29:\n    /* \"#utility.yul\":1074:1196   */\n  pop\n  jump\t// out\n    /* \"contracts/StakeTB.sol\":117:1786  contract StakeTB{... */\ntag_6:\n  dataSize(sub_0)\n  dup1\n  dataOffset(sub_0)\n  0x00\n  codecopy\n  0x00\n  return\nstop\n\nsub_0: assembly {\n        /* \"contracts/StakeTB.sol\":117:1786  contract StakeTB{... */\n      mstore(0x40, 0x80)\n      callvalue\n      dup1\n      iszero\n      tag_1\n      jumpi\n      0x00\n      dup1\n      revert\n    tag_1:\n      pop\n      jumpi(tag_2, lt(calldatasize, 0x04))\n      shr(0xe0, calldataload(0x00))\n      dup1\n      0x2def6620\n      eq\n      tag_3\n      jumpi\n      dup1\n      0x373d6132\n      eq\n      tag_4\n      jumpi\n      dup1\n      0x4641257d\n      eq\n      tag_5\n      jumpi\n      dup1\n      0xa694fc3a\n      eq\n      tag_6\n      jumpi\n    tag_2:\n      0x00\n      dup1\n      revert\n        /* \"contracts/StakeTB.sol\":1345:1664  function unstake() public {... */\n    tag_3:\n      tag_7\n      tag_8\n      jump\t// in\n    tag_7:\n      stop\n        /* \"contracts/StakeTB.sol\":1670:1784  function stakedAmount() public view returns(uint256){... */\n    tag_4:\n      tag_9\n      tag_10\n      jump\t// in\n    tag_9:\n      mload(0x40)\n      tag_11\n      swap2\n      swap1\n      tag_12\n      jump\t// in\n    tag_11:\n      mload(0x40)\n      dup1\n      swap2\n      sub\n      swap1\n      return\n        /* \"contracts/StakeTB.sol\":919:1160  function harvest() public {... */\n    tag_5:\n      tag_13\n      tag_14\n      jump\t// in\n    tag_13:\n      stop\n        /* \"contracts/StakeTB.sol\":414:913  function stake(uint256 amount) public {... */\n    tag_6:\n      tag_15\n      0x04\n      dup1\n      calldatasize\n      sub\n      dup2\n      add\n      swap1\n      tag_16\n      swap2\n      swap1\n      tag_17\n      jump\t// in\n    tag_16:\n      tag_18\n      jump\t// in\n    tag_15:\n      stop\n        /* \"contracts/StakeTB.sol\":1345:1664  function unstake() public {... */\n    tag_8:\n        /* \"contracts/StakeTB.sol\":1381:1402  stakeInfo memory info */\n      0x00\n        /* \"contracts/StakeTB.sol\":1405:1424  _addressToStakeInfo */\n      0x01\n        /* \"contracts/StakeTB.sol\":1405:1436  _addressToStakeInfo[msg.sender] */\n      0x00\n        /* \"contracts/StakeTB.sol\":1425:1435  msg.sender */\n      caller\n        /* \"contracts/StakeTB.sol\":1405:1436  _addressToStakeInfo[msg.sender] */\n      0xffffffffffffffffffffffffffffffffffffffff\n      and\n      0xffffffffffffffffffffffffffffffffffffffff\n      and\n      dup2\n      mstore\n      0x20\n      add\n      swap1\n      dup2\n      mstore\n      0x20\n      add\n      0x00\n      keccak256\n        /* \"contracts/StakeTB.sol\":1381:1436  stakeInfo memory info = _addressToStakeInfo[msg.sender] */\n      mload(0x40)\n      dup1\n      0x40\n      add\n      0x40\n      mstore\n      swap1\n      dup2\n      0x00\n      dup3\n      add\n      sload\n      dup2\n      mstore\n      0x20\n      add\n      0x01\n      dup3\n      add\n      sload\n      dup2\n      mstore\n      pop\n      pop\n      swap1\n      pop\n        /* \"contracts/StakeTB.sol\":1468:1469  0 */\n      0x00\n        /* \"contracts/StakeTB.sol\":1454:1458  info */\n      dup2\n        /* \"contracts/StakeTB.sol\":1454:1465  info.amount */\n      0x00\n      add\n      mload\n        /* \"contracts/StakeTB.sol\":1454:1469  info.amount > 0 */\n      gt\n        /* \"contracts/StakeTB.sol\":1446:1507  require(info.amount > 0, \"You haven't staked any coins yet.\") */\n      tag_20\n      jumpi\n      mload(0x40)\n      0x08c379a000000000000000000000000000000000000000000000000000000000\n      dup2\n      mstore\n      0x04\n      add\n      tag_21\n      swap1\n      tag_22\n      jump\t// in\n    tag_21:\n      mload(0x40)\n      dup1\n      swap2\n      sub\n      swap1\n      revert\n    tag_20:\n        /* \"contracts/StakeTB.sol\":1524:1539  stakeInfo(0, 0) */\n      mload(0x40)\n      dup1\n      0x40\n      add\n      0x40\n      mstore\n      dup1\n        /* \"contracts/StakeTB.sol\":1534:1535  0 */\n      0x00\n        /* \"contracts/StakeTB.sol\":1524:1539  stakeInfo(0, 0) */\n      dup2\n      mstore\n      0x20\n      add\n        /* \"contracts/StakeTB.sol\":1537:1538  0 */\n      0x00\n        /* \"contracts/StakeTB.sol\":1524:1539  stakeInfo(0, 0) */\n      dup2\n      mstore\n      pop\n        /* \"contracts/StakeTB.sol\":1517:1539  info = stakeInfo(0, 0) */\n      swap1\n      pop\n        /* \"contracts/StakeTB.sol\":1583:1587  info */\n      dup1\n        /* \"contracts/StakeTB.sol\":1549:1568  _addressToStakeInfo */\n      0x01\n        /* \"contracts/StakeTB.sol\":1549:1580  _addressToStakeInfo[msg.sender] */\n      0x00\n        /* \"contracts/StakeTB.sol\":1569:1579  msg.sender */\n      caller\n        /* \"contracts/StakeTB.sol\":1549:1580  _addressToStakeInfo[msg.sender] */\n      0xffffffffffffffffffffffffffffffffffffffff\n      and\n      0xffffffffffffffffffffffffffffffffffffffff\n      and\n      dup2\n      mstore\n      0x20\n      add\n      swap1\n      dup2\n      mstore\n      0x20\n      add\n      0x00\n      keccak256\n        /* \"contracts/StakeTB.sol\":1549:1587  _addressToStakeInfo[msg.sender] = info */\n      0x00\n      dup3\n      add\n      mload\n      dup2\n      0x00\n      add\n      sstore\n      0x20\n      dup3\n      add\n      mload\n      dup2\n      0x01\n      add\n      sstore\n      swap1\n      pop\n      pop\n        /* \"contracts/StakeTB.sol\":1597:1603  _token */\n      0x00\n      dup1\n      sload\n      swap1\n      0x0100\n      exp\n      swap1\n      div\n      0xffffffffffffffffffffffffffffffffffffffff\n      and\n        /* \"contracts/StakeTB.sol\":1597:1612  _token.transfer */\n      0xffffffffffffffffffffffffffffffffffffffff\n      and\n      0xa9059cbb\n        /* \"contracts/StakeTB.sol\":1613:1623  msg.sender */\n      caller\n        /* \"contracts/StakeTB.sol\":1639:1655  calcReward(info) */\n      tag_23\n        /* \"contracts/StakeTB.sol\":1650:1654  info */\n      dup5\n        /* \"contracts/StakeTB.sol\":1639:1649  calcReward */\n      tag_24\n        /* \"contracts/StakeTB.sol\":1639:1655  calcReward(info) */\n      jump\t// in\n    tag_23:\n        /* \"contracts/StakeTB.sol\":1625:1629  info */\n      dup5\n        /* \"contracts/StakeTB.sol\":1625:1636  info.amount */\n      0x00\n      add\n      mload\n        /* \"contracts/StakeTB.sol\":1625:1655  info.amount + calcReward(info) */\n      tag_25\n      swap2\n      swap1\n      tag_26\n      jump\t// in\n    tag_25:\n        /* \"contracts/StakeTB.sol\":1597:1656  _token.transfer(msg.sender, info.amount + calcReward(info)) */\n      mload(0x40)\n      dup4\n      0xffffffff\n      and\n      0xe0\n      shl\n      dup2\n      mstore\n      0x04\n      add\n      tag_27\n      swap3\n      swap2\n      swap1\n      tag_28\n      jump\t// in\n    tag_27:\n      0x20\n      mload(0x40)\n      dup1\n      dup4\n      sub\n      dup2\n      0x00\n      dup8\n      dup1\n      extcodesize\n      iszero\n      dup1\n      iszero\n      tag_29\n      jumpi\n      0x00\n      dup1\n      revert\n    tag_29:\n      pop\n      gas\n      call\n      iszero\n      dup1\n      iszero\n      tag_31\n      jumpi\n      returndatasize\n      0x00\n      dup1\n      returndatacopy\n      revert(0x00, returndatasize)\n    tag_31:\n      pop\n      pop\n      pop\n      pop\n      mload(0x40)\n      returndatasize\n      not(0x1f)\n      0x1f\n      dup3\n      add\n      and\n      dup3\n      add\n      dup1\n      0x40\n      mstore\n      pop\n      dup2\n      add\n      swap1\n      tag_32\n      swap2\n      swap1\n      tag_33\n      jump\t// in\n    tag_32:\n      pop\n        /* \"contracts/StakeTB.sol\":1371:1664  {... */\n      pop\n        /* \"contracts/StakeTB.sol\":1345:1664  function unstake() public {... */\n      jump\t// out\n        /* \"contracts/StakeTB.sol\":1670:1784  function stakedAmount() public view returns(uint256){... */\n    tag_10:\n        /* \"contracts/StakeTB.sol\":1714:1721  uint256 */\n      0x00\n        /* \"contracts/StakeTB.sol\":1739:1758  _addressToStakeInfo */\n      0x01\n        /* \"contracts/StakeTB.sol\":1739:1770  _addressToStakeInfo[msg.sender] */\n      0x00\n        /* \"contracts/StakeTB.sol\":1759:1769  msg.sender */\n      caller\n        /* \"contracts/StakeTB.sol\":1739:1770  _addressToStakeInfo[msg.sender] */\n      0xffffffffffffffffffffffffffffffffffffffff\n      and\n      0xffffffffffffffffffffffffffffffffffffffff\n      and\n      dup2\n      mstore\n      0x20\n      add\n      swap1\n      dup2\n      mstore\n      0x20\n      add\n      0x00\n      keccak256\n        /* \"contracts/StakeTB.sol\":1739:1777  _addressToStakeInfo[msg.sender].amount */\n      0x00\n      add\n      sload\n        /* \"contracts/StakeTB.sol\":1732:1777  return _addressToStakeInfo[msg.sender].amount */\n      swap1\n      pop\n        /* \"contracts/StakeTB.sol\":1670:1784  function stakedAmount() public view returns(uint256){... */\n      swap1\n      jump\t// out\n        /* \"contracts/StakeTB.sol\":919:1160  function harvest() public {... */\n    tag_14:\n        /* \"contracts/StakeTB.sol\":955:977  stakeInfo storage info */\n      0x00\n        /* \"contracts/StakeTB.sol\":980:999  _addressToStakeInfo */\n      0x01\n        /* \"contracts/StakeTB.sol\":980:1011  _addressToStakeInfo[msg.sender] */\n      0x00\n        /* \"contracts/StakeTB.sol\":1000:1010  msg.sender */\n      caller\n        /* \"contracts/StakeTB.sol\":980:1011  _addressToStakeInfo[msg.sender] */\n      0xffffffffffffffffffffffffffffffffffffffff\n      and\n      0xffffffffffffffffffffffffffffffffffffffff\n      and\n      dup2\n      mstore\n      0x20\n      add\n      swap1\n      dup2\n      mstore\n      0x20\n      add\n      0x00\n      keccak256\n        /* \"contracts/StakeTB.sol\":955:1011  stakeInfo storage info = _addressToStakeInfo[msg.sender] */\n      swap1\n      pop\n        /* \"contracts/StakeTB.sol\":1021:1041  uint256 rewardAmount */\n      0x00\n        /* \"contracts/StakeTB.sol\":1044:1060  calcReward(info) */\n      tag_36\n        /* \"contracts/StakeTB.sol\":1055:1059  info */\n      dup3\n        /* \"contracts/StakeTB.sol\":1044:1060  calcReward(info) */\n      mload(0x40)\n      dup1\n      0x40\n      add\n      0x40\n      mstore\n      swap1\n      dup2\n      0x00\n      dup3\n      add\n      sload\n      dup2\n      mstore\n      0x20\n      add\n      0x01\n      dup3\n      add\n      sload\n      dup2\n      mstore\n      pop\n      pop\n        /* \"contracts/StakeTB.sol\":1044:1054  calcReward */\n      tag_24\n        /* \"contracts/StakeTB.sol\":1044:1060  calcReward(info) */\n      jump\t// in\n    tag_36:\n        /* \"contracts/StakeTB.sol\":1021:1060  uint256 rewardAmount = calcReward(info) */\n      swap1\n      pop\n        /* \"contracts/StakeTB.sol\":1087:1102  block.timestamp */\n      timestamp\n        /* \"contracts/StakeTB.sol\":1070:1074  info */\n      dup3\n        /* \"contracts/StakeTB.sol\":1070:1084  info.startTime */\n      0x01\n      add\n        /* \"contracts/StakeTB.sol\":1070:1102  info.startTime = block.timestamp */\n      dup2\n      swap1\n      sstore\n      pop\n        /* \"contracts/StakeTB.sol\":1112:1118  _token */\n      0x00\n      dup1\n      sload\n      swap1\n      0x0100\n      exp\n      swap1\n      div\n      0xffffffffffffffffffffffffffffffffffffffff\n      and\n        /* \"contracts/StakeTB.sol\":1112:1127  _token.transfer */\n      0xffffffffffffffffffffffffffffffffffffffff\n      and\n      0xa9059cbb\n        /* \"contracts/StakeTB.sol\":1128:1138  msg.sender */\n      caller\n        /* \"contracts/StakeTB.sol\":1140:1152  rewardAmount */\n      dup4\n        /* \"contracts/StakeTB.sol\":1112:1153  _token.transfer(msg.sender, rewardAmount) */\n      mload(0x40)\n      dup4\n      0xffffffff\n      and\n      0xe0\n      shl\n      dup2\n      mstore\n      0x04\n      add\n      tag_37\n      swap3\n      swap2\n      swap1\n      tag_28\n      jump\t// in\n    tag_37:\n      0x20\n      mload(0x40)\n      dup1\n      dup4\n      sub\n      dup2\n      0x00\n      dup8\n      dup1\n      extcodesize\n      iszero\n      dup1\n      iszero\n      tag_38\n      jumpi\n      0x00\n      dup1\n      revert\n    tag_38:\n      pop\n      gas\n      call\n      iszero\n      dup1\n      iszero\n      tag_40\n      jumpi\n      returndatasize\n      0x00\n      dup1\n      returndatacopy\n      revert(0x00, returndatasize)\n    tag_40:\n      pop\n      pop\n      pop\n      pop\n      mload(0x40)\n      returndatasize\n      not(0x1f)\n      0x1f\n      dup3\n      add\n      and\n      dup3\n      add\n      dup1\n      0x40\n      mstore\n      pop\n      dup2\n      add\n      swap1\n      tag_41\n      swap2\n      swap1\n      tag_33\n      jump\t// in\n    tag_41:\n      pop\n        /* \"contracts/StakeTB.sol\":945:1160  {... */\n      pop\n      pop\n        /* \"contracts/StakeTB.sol\":919:1160  function harvest() public {... */\n      jump\t// out\n        /* \"contracts/StakeTB.sol\":414:913  function stake(uint256 amount) public {... */\n    tag_18:\n        /* \"contracts/StakeTB.sol\":462:486  stakeInfo memory oldInfo */\n      0x00\n        /* \"contracts/StakeTB.sol\":489:508  _addressToStakeInfo */\n      0x01\n        /* \"contracts/StakeTB.sol\":489:520  _addressToStakeInfo[msg.sender] */\n      0x00\n        /* \"contracts/StakeTB.sol\":509:519  msg.sender */\n      caller\n        /* \"contracts/StakeTB.sol\":489:520  _addressToStakeInfo[msg.sender] */\n      0xffffffffffffffffffffffffffffffffffffffff\n      and\n      0xffffffffffffffffffffffffffffffffffffffff\n      and\n      dup2\n      mstore\n      0x20\n      add\n      swap1\n      dup2\n      mstore\n      0x20\n      add\n      0x00\n      keccak256\n        /* \"contracts/StakeTB.sol\":462:520  stakeInfo memory oldInfo = _addressToStakeInfo[msg.sender] */\n      mload(0x40)\n      dup1\n      0x40\n      add\n      0x40\n      mstore\n      swap1\n      dup2\n      0x00\n      dup3\n      add\n      sload\n      dup2\n      mstore\n      0x20\n      add\n      0x01\n      dup3\n      add\n      sload\n      dup2\n      mstore\n      pop\n      pop\n      swap1\n      pop\n        /* \"contracts/StakeTB.sol\":552:553  0 */\n      0x00\n        /* \"contracts/StakeTB.sol\":535:542  oldInfo */\n      dup2\n        /* \"contracts/StakeTB.sol\":535:549  oldInfo.amount */\n      0x00\n      add\n      mload\n        /* \"contracts/StakeTB.sol\":535:553  oldInfo.amount > 0 */\n      gt\n        /* \"contracts/StakeTB.sol\":531:676  if (oldInfo.amount > 0){... */\n      iszero\n      tag_43\n      jumpi\n        /* \"contracts/StakeTB.sol\":568:588  uint256 rewardAmount */\n      0x00\n        /* \"contracts/StakeTB.sol\":591:610  calcReward(oldInfo) */\n      tag_44\n        /* \"contracts/StakeTB.sol\":602:609  oldInfo */\n      dup3\n        /* \"contracts/StakeTB.sol\":591:601  calcReward */\n      tag_24\n        /* \"contracts/StakeTB.sol\":591:610  calcReward(oldInfo) */\n      jump\t// in\n    tag_44:\n        /* \"contracts/StakeTB.sol\":568:610  uint256 rewardAmount = calcReward(oldInfo) */\n      swap1\n      pop\n        /* \"contracts/StakeTB.sol\":624:630  _token */\n      0x00\n      dup1\n      sload\n      swap1\n      0x0100\n      exp\n      swap1\n      div\n      0xffffffffffffffffffffffffffffffffffffffff\n      and\n        /* \"contracts/StakeTB.sol\":624:639  _token.transfer */\n      0xffffffffffffffffffffffffffffffffffffffff\n      and\n      0xa9059cbb\n        /* \"contracts/StakeTB.sol\":640:650  msg.sender */\n      caller\n        /* \"contracts/StakeTB.sol\":652:664  rewardAmount */\n      dup4\n        /* \"contracts/StakeTB.sol\":624:665  _token.transfer(msg.sender, rewardAmount) */\n      mload(0x40)\n      dup4\n      0xffffffff\n      and\n      0xe0\n      shl\n      dup2\n      mstore\n      0x04\n      add\n      tag_45\n      swap3\n      swap2\n      swap1\n      tag_28\n      jump\t// in\n    tag_45:\n      0x20\n      mload(0x40)\n      dup1\n      dup4\n      sub\n      dup2\n      0x00\n      dup8\n      dup1\n      extcodesize\n      iszero\n      dup1\n      iszero\n      tag_46\n      jumpi\n      0x00\n      dup1\n      revert\n    tag_46:\n      pop\n      gas\n      call\n      iszero\n      dup1\n      iszero\n      tag_48\n      jumpi\n      returndatasize\n      0x00\n      dup1\n      returndatacopy\n      revert(0x00, returndatasize)\n    tag_48:\n      pop\n      pop\n      pop\n      pop\n      mload(0x40)\n      returndatasize\n      not(0x1f)\n      0x1f\n      dup3\n      add\n      and\n      dup3\n      add\n      dup1\n      0x40\n      mstore\n      pop\n      dup2\n      add\n      swap1\n      tag_49\n      swap2\n      swap1\n      tag_33\n      jump\t// in\n    tag_49:\n      pop\n        /* \"contracts/StakeTB.sol\":554:676  {... */\n      pop\n        /* \"contracts/StakeTB.sol\":531:676  if (oldInfo.amount > 0){... */\n    tag_43:\n        /* \"contracts/StakeTB.sol\":713:719  _token */\n      0x00\n      dup1\n      sload\n      swap1\n      0x0100\n      exp\n      swap1\n      div\n      0xffffffffffffffffffffffffffffffffffffffff\n      and\n        /* \"contracts/StakeTB.sol\":713:732  _token.transferFrom */\n      0xffffffffffffffffffffffffffffffffffffffff\n      and\n      0x23b872dd\n        /* \"contracts/StakeTB.sol\":733:743  msg.sender */\n      caller\n        /* \"contracts/StakeTB.sol\":753:757  this */\n      address\n        /* \"contracts/StakeTB.sol\":760:766  amount */\n      dup6\n        /* \"contracts/StakeTB.sol\":713:767  _token.transferFrom(msg.sender, address(this), amount) */\n      mload(0x40)\n      dup5\n      0xffffffff\n      and\n      0xe0\n      shl\n      dup2\n      mstore\n      0x04\n      add\n      tag_50\n      swap4\n      swap3\n      swap2\n      swap1\n      tag_51\n      jump\t// in\n    tag_50:\n      0x20\n      mload(0x40)\n      dup1\n      dup4\n      sub\n      dup2\n      0x00\n      dup8\n      dup1\n      extcodesize\n      iszero\n      dup1\n      iszero\n      tag_52\n      jumpi\n      0x00\n      dup1\n      revert\n    tag_52:\n      pop\n      gas\n      call\n      iszero\n      dup1\n      iszero\n      tag_54\n      jumpi\n      returndatasize\n      0x00\n      dup1\n      returndatacopy\n      revert(0x00, returndatasize)\n    tag_54:\n      pop\n      pop\n      pop\n      pop\n      mload(0x40)\n      returndatasize\n      not(0x1f)\n      0x1f\n      dup3\n      add\n      and\n      dup3\n      add\n      dup1\n      0x40\n      mstore\n      pop\n      dup2\n      add\n      swap1\n      tag_55\n      swap2\n      swap1\n      tag_33\n      jump\t// in\n    tag_55:\n      pop\n        /* \"contracts/StakeTB.sol\":777:801  stakeInfo memory newInfo */\n      0x00\n        /* \"contracts/StakeTB.sol\":804:855  stakeInfo(amount + oldInfo.amount, block.timestamp) */\n      mload(0x40)\n      dup1\n      0x40\n      add\n      0x40\n      mstore\n      dup1\n        /* \"contracts/StakeTB.sol\":823:830  oldInfo */\n      dup4\n        /* \"contracts/StakeTB.sol\":823:837  oldInfo.amount */\n      0x00\n      add\n      mload\n        /* \"contracts/StakeTB.sol\":814:820  amount */\n      dup6\n        /* \"contracts/StakeTB.sol\":814:837  amount + oldInfo.amount */\n      tag_56\n      swap2\n      swap1\n      tag_26\n      jump\t// in\n    tag_56:\n        /* \"contracts/StakeTB.sol\":804:855  stakeInfo(amount + oldInfo.amount, block.timestamp) */\n      dup2\n      mstore\n      0x20\n      add\n        /* \"contracts/StakeTB.sol\":839:854  block.timestamp */\n      timestamp\n        /* \"contracts/StakeTB.sol\":804:855  stakeInfo(amount + oldInfo.amount, block.timestamp) */\n      dup2\n      mstore\n      pop\n        /* \"contracts/StakeTB.sol\":777:855  stakeInfo memory newInfo = stakeInfo(amount + oldInfo.amount, block.timestamp) */\n      swap1\n      pop\n        /* \"contracts/StakeTB.sol\":899:906  newInfo */\n      dup1\n        /* \"contracts/StakeTB.sol\":865:884  _addressToStakeInfo */\n      0x01\n        /* \"contracts/StakeTB.sol\":865:896  _addressToStakeInfo[msg.sender] */\n      0x00\n        /* \"contracts/StakeTB.sol\":885:895  msg.sender */\n      caller\n        /* \"contracts/StakeTB.sol\":865:896  _addressToStakeInfo[msg.sender] */\n      0xffffffffffffffffffffffffffffffffffffffff\n      and\n      0xffffffffffffffffffffffffffffffffffffffff\n      and\n      dup2\n      mstore\n      0x20\n      add\n      swap1\n      dup2\n      mstore\n      0x20\n      add\n      0x00\n      keccak256\n        /* \"contracts/StakeTB.sol\":865:906  _addressToStakeInfo[msg.sender] = newInfo */\n      0x00\n      dup3\n      add\n      mload\n      dup2\n      0x00\n      add\n      sstore\n      0x20\n      dup3\n      add\n      mload\n      dup2\n      0x01\n      add\n      sstore\n      swap1\n      pop\n      pop\n        /* \"contracts/StakeTB.sol\":452:913  {... */\n      pop\n      pop\n        /* \"contracts/StakeTB.sol\":414:913  function stake(uint256 amount) public {... */\n      pop\n      jump\t// out\n        /* \"contracts/StakeTB.sol\":1166:1339  function calcReward(stakeInfo memory info) internal view returns(uint256){... */\n    tag_24:\n        /* \"contracts/StakeTB.sol\":1231:1238  uint256 */\n      0x00\n        /* \"contracts/StakeTB.sol\":1330:1332  60 */\n      0x3c\n        /* \"contracts/StakeTB.sol\":1312:1316  info */\n      dup3\n        /* \"contracts/StakeTB.sol\":1312:1326  info.startTime */\n      0x20\n      add\n      mload\n        /* \"contracts/StakeTB.sol\":1294:1309  block.timestamp */\n      timestamp\n        /* \"contracts/StakeTB.sol\":1294:1326  block.timestamp - info.startTime */\n      tag_58\n      swap2\n      swap1\n      tag_59\n      jump\t// in\n    tag_58:\n        /* \"contracts/StakeTB.sol\":1270:1290  _rewardRatePerMinute */\n      sload(0x02)\n        /* \"contracts/StakeTB.sol\":1256:1260  info */\n      dup5\n        /* \"contracts/StakeTB.sol\":1256:1267  info.amount */\n      0x00\n      add\n      mload\n        /* \"contracts/StakeTB.sol\":1256:1290  info.amount * _rewardRatePerMinute */\n      tag_60\n      swap2\n      swap1\n      tag_61\n      jump\t// in\n    tag_60:\n        /* \"contracts/StakeTB.sol\":1256:1327  info.amount * _rewardRatePerMinute * (block.timestamp - info.startTime) */\n      tag_62\n      swap2\n      swap1\n      tag_61\n      jump\t// in\n    tag_62:\n        /* \"contracts/StakeTB.sol\":1256:1332  info.amount * _rewardRatePerMinute * (block.timestamp - info.startTime) / 60 */\n      tag_63\n      swap2\n      swap1\n      tag_64\n      jump\t// in\n    tag_63:\n        /* \"contracts/StakeTB.sol\":1249:1332  return info.amount * _rewardRatePerMinute * (block.timestamp - info.startTime) / 60 */\n      swap1\n      pop\n        /* \"contracts/StakeTB.sol\":1166:1339  function calcReward(stakeInfo memory info) internal view returns(uint256){... */\n      swap2\n      swap1\n      pop\n      jump\t// out\n        /* \"#utility.yul\":7:144   */\n    tag_66:\n        /* \"#utility.yul\":61:66   */\n      0x00\n        /* \"#utility.yul\":92:98   */\n      dup2\n        /* \"#utility.yul\":86:99   */\n      mload\n        /* \"#utility.yul\":77:99   */\n      swap1\n      pop\n        /* \"#utility.yul\":108:138   */\n      tag_68\n        /* \"#utility.yul\":132:137   */\n      dup2\n        /* \"#utility.yul\":108:138   */\n      tag_69\n      jump\t// in\n    tag_68:\n        /* \"#utility.yul\":7:144   */\n      swap3\n      swap2\n      pop\n      pop\n      jump\t// out\n        /* \"#utility.yul\":150:289   */\n    tag_70:\n        /* \"#utility.yul\":196:201   */\n      0x00\n        /* \"#utility.yul\":234:240   */\n      dup2\n        /* \"#utility.yul\":221:241   */\n      calldataload\n        /* \"#utility.yul\":212:241   */\n      swap1\n      pop\n        /* \"#utility.yul\":250:283   */\n      tag_72\n        /* \"#utility.yul\":277:282   */\n      dup2\n        /* \"#utility.yul\":250:283   */\n      tag_73\n      jump\t// in\n    tag_72:\n        /* \"#utility.yul\":150:289   */\n      swap3\n      swap2\n      pop\n      pop\n      jump\t// out\n        /* \"#utility.yul\":295:640   */\n    tag_33:\n        /* \"#utility.yul\":362:368   */\n      0x00\n        /* \"#utility.yul\":411:413   */\n      0x20\n        /* \"#utility.yul\":399:408   */\n      dup3\n        /* \"#utility.yul\":390:397   */\n      dup5\n        /* \"#utility.yul\":386:409   */\n      sub\n        /* \"#utility.yul\":382:414   */\n      slt\n        /* \"#utility.yul\":379:498   */\n      iszero\n      tag_75\n      jumpi\n        /* \"#utility.yul\":417:496   */\n      tag_76\n      tag_77\n      jump\t// in\n    tag_76:\n        /* \"#utility.yul\":379:498   */\n    tag_75:\n        /* \"#utility.yul\":537:538   */\n      0x00\n        /* \"#utility.yul\":562:623   */\n      tag_78\n        /* \"#utility.yul\":615:622   */\n      dup5\n        /* \"#utility.yul\":606:612   */\n      dup3\n        /* \"#utility.yul\":595:604   */\n      dup6\n        /* \"#utility.yul\":591:613   */\n      add\n        /* \"#utility.yul\":562:623   */\n      tag_66\n      jump\t// in\n    tag_78:\n        /* \"#utility.yul\":552:623   */\n      swap2\n      pop\n        /* \"#utility.yul\":508:633   */\n      pop\n        /* \"#utility.yul\":295:640   */\n      swap3\n      swap2\n      pop\n      pop\n      jump\t// out\n        /* \"#utility.yul\":646:975   */\n    tag_17:\n        /* \"#utility.yul\":705:711   */\n      0x00\n        /* \"#utility.yul\":754:756   */\n      0x20\n        /* \"#utility.yul\":742:751   */\n      dup3\n        /* \"#utility.yul\":733:740   */\n      dup5\n        /* \"#utility.yul\":729:752   */\n      sub\n        /* \"#utility.yul\":725:757   */\n      slt\n        /* \"#utility.yul\":722:841   */\n      iszero\n      tag_80\n      jumpi\n        /* \"#utility.yul\":760:839   */\n      tag_81\n      tag_77\n      jump\t// in\n    tag_81:\n        /* \"#utility.yul\":722:841   */\n    tag_80:\n        /* \"#utility.yul\":880:881   */\n      0x00\n        /* \"#utility.yul\":905:958   */\n      tag_82\n        /* \"#utility.yul\":950:957   */\n      dup5\n        /* \"#utility.yul\":941:947   */\n      dup3\n        /* \"#utility.yul\":930:939   */\n      dup6\n        /* \"#utility.yul\":926:948   */\n      add\n        /* \"#utility.yul\":905:958   */\n      tag_70\n      jump\t// in\n    tag_82:\n        /* \"#utility.yul\":895:958   */\n      swap2\n      pop\n        /* \"#utility.yul\":851:968   */\n      pop\n        /* \"#utility.yul\":646:975   */\n      swap3\n      swap2\n      pop\n      pop\n      jump\t// out\n        /* \"#utility.yul\":981:1099   */\n    tag_83:\n        /* \"#utility.yul\":1068:1092   */\n      tag_85\n        /* \"#utility.yul\":1086:1091   */\n      dup2\n        /* \"#utility.yul\":1068:1092   */\n      tag_86\n      jump\t// in\n    tag_85:\n        /* \"#utility.yul\":1063:1066   */\n      dup3\n        /* \"#utility.yul\":1056:1093   */\n      mstore\n        /* \"#utility.yul\":981:1099   */\n      pop\n      pop\n      jump\t// out\n        /* \"#utility.yul\":1105:1471   */\n    tag_87:\n        /* \"#utility.yul\":1247:1250   */\n      0x00\n        /* \"#utility.yul\":1268:1335   */\n      tag_89\n        /* \"#utility.yul\":1332:1334   */\n      0x21\n        /* \"#utility.yul\":1327:1330   */\n      dup4\n        /* \"#utility.yul\":1268:1335   */\n      tag_90\n      jump\t// in\n    tag_89:\n        /* \"#utility.yul\":1261:1335   */\n      swap2\n      pop\n        /* \"#utility.yul\":1344:1437   */\n      tag_91\n        /* \"#utility.yul\":1433:1436   */\n      dup3\n        /* \"#utility.yul\":1344:1437   */\n      tag_92\n      jump\t// in\n    tag_91:\n        /* \"#utility.yul\":1462:1464   */\n      0x40\n        /* \"#utility.yul\":1457:1460   */\n      dup3\n        /* \"#utility.yul\":1453:1465   */\n      add\n        /* \"#utility.yul\":1446:1465   */\n      swap1\n      pop\n        /* \"#utility.yul\":1105:1471   */\n      swap2\n      swap1\n      pop\n      jump\t// out\n        /* \"#utility.yul\":1477:1595   */\n    tag_93:\n        /* \"#utility.yul\":1564:1588   */\n      tag_95\n        /* \"#utility.yul\":1582:1587   */\n      dup2\n        /* \"#utility.yul\":1564:1588   */\n      tag_96\n      jump\t// in\n    tag_95:\n        /* \"#utility.yul\":1559:1562   */\n      dup3\n        /* \"#utility.yul\":1552:1589   */\n      mstore\n        /* \"#utility.yul\":1477:1595   */\n      pop\n      pop\n      jump\t// out\n        /* \"#utility.yul\":1601:2043   */\n    tag_51:\n        /* \"#utility.yul\":1750:1754   */\n      0x00\n        /* \"#utility.yul\":1788:1790   */\n      0x60\n        /* \"#utility.yul\":1777:1786   */\n      dup3\n        /* \"#utility.yul\":1773:1791   */\n      add\n        /* \"#utility.yul\":1765:1791   */\n      swap1\n      pop\n        /* \"#utility.yul\":1801:1872   */\n      tag_98\n        /* \"#utility.yul\":1869:1870   */\n      0x00\n        /* \"#utility.yul\":1858:1867   */\n      dup4\n        /* \"#utility.yul\":1854:1871   */\n      add\n        /* \"#utility.yul\":1845:1851   */\n      dup7\n        /* \"#utility.yul\":1801:1872   */\n      tag_83\n      jump\t// in\n    tag_98:\n        /* \"#utility.yul\":1882:1954   */\n      tag_99\n        /* \"#utility.yul\":1950:1952   */\n      0x20\n        /* \"#utility.yul\":1939:1948   */\n      dup4\n        /* \"#utility.yul\":1935:1953   */\n      add\n        /* \"#utility.yul\":1926:1932   */\n      dup6\n        /* \"#utility.yul\":1882:1954   */\n      tag_83\n      jump\t// in\n    tag_99:\n        /* \"#utility.yul\":1964:2036   */\n      tag_100\n        /* \"#utility.yul\":2032:2034   */\n      0x40\n        /* \"#utility.yul\":2021:2030   */\n      dup4\n        /* \"#utility.yul\":2017:2035   */\n      add\n        /* \"#utility.yul\":2008:2014   */\n      dup5\n        /* \"#utility.yul\":1964:2036   */\n      tag_93\n      jump\t// in\n    tag_100:\n        /* \"#utility.yul\":1601:2043   */\n      swap5\n      swap4\n      pop\n      pop\n      pop\n      pop\n      jump\t// out\n        /* \"#utility.yul\":2049:2381   */\n    tag_28:\n        /* \"#utility.yul\":2170:2174   */\n      0x00\n        /* \"#utility.yul\":2208:2210   */\n      0x40\n        /* \"#utility.yul\":2197:2206   */\n      dup3\n        /* \"#utility.yul\":2193:2211   */\n      add\n        /* \"#utility.yul\":2185:2211   */\n      swap1\n      pop\n        /* \"#utility.yul\":2221:2292   */\n      tag_102\n        /* \"#utility.yul\":2289:2290   */\n      0x00\n        /* \"#utility.yul\":2278:2287   */\n      dup4\n        /* \"#utility.yul\":2274:2291   */\n      add\n        /* \"#utility.yul\":2265:2271   */\n      dup6\n        /* \"#utility.yul\":2221:2292   */\n      tag_83\n      jump\t// in\n    tag_102:\n        /* \"#utility.yul\":2302:2374   */\n      tag_103\n        /* \"#utility.yul\":2370:2372   */\n      0x20\n        /* \"#utility.yul\":2359:2368   */\n      dup4\n        /* \"#utility.yul\":2355:2373   */\n      add\n        /* \"#utility.yul\":2346:2352   */\n      dup5\n        /* \"#utility.yul\":2302:2374   */\n      tag_93\n      jump\t// in\n    tag_103:\n        /* \"#utility.yul\":2049:2381   */\n      swap4\n      swap3\n      pop\n      pop\n      pop\n      jump\t// out\n        /* \"#utility.yul\":2387:2806   */\n    tag_22:\n        /* \"#utility.yul\":2553:2557   */\n      0x00\n        /* \"#utility.yul\":2591:2593   */\n      0x20\n        /* \"#utility.yul\":2580:2589   */\n      dup3\n        /* \"#utility.yul\":2576:2594   */\n      add\n        /* \"#utility.yul\":2568:2594   */\n      swap1\n      pop\n        /* \"#utility.yul\":2640:2649   */\n      dup2\n        /* \"#utility.yul\":2634:2638   */\n      dup2\n        /* \"#utility.yul\":2630:2650   */\n      sub\n        /* \"#utility.yul\":2626:2627   */\n      0x00\n        /* \"#utility.yul\":2615:2624   */\n      dup4\n        /* \"#utility.yul\":2611:2628   */\n      add\n        /* \"#utility.yul\":2604:2651   */\n      mstore\n        /* \"#utility.yul\":2668:2799   */\n      tag_105\n        /* \"#utility.yul\":2794:2798   */\n      dup2\n        /* \"#utility.yul\":2668:2799   */\n      tag_87\n      jump\t// in\n    tag_105:\n        /* \"#utility.yul\":2660:2799   */\n      swap1\n      pop\n        /* \"#utility.yul\":2387:2806   */\n      swap2\n      swap1\n      pop\n      jump\t// out\n        /* \"#utility.yul\":2812:3034   */\n    tag_12:\n        /* \"#utility.yul\":2905:2909   */\n      0x00\n        /* \"#utility.yul\":2943:2945   */\n      0x20\n        /* \"#utility.yul\":2932:2941   */\n      dup3\n        /* \"#utility.yul\":2928:2946   */\n      add\n        /* \"#utility.yul\":2920:2946   */\n      swap1\n      pop\n        /* \"#utility.yul\":2956:3027   */\n      tag_107\n        /* \"#utility.yul\":3024:3025   */\n      0x00\n        /* \"#utility.yul\":3013:3022   */\n      dup4\n        /* \"#utility.yul\":3009:3026   */\n      add\n        /* \"#utility.yul\":3000:3006   */\n      dup5\n        /* \"#utility.yul\":2956:3027   */\n      tag_93\n      jump\t// in\n    tag_107:\n        /* \"#utility.yul\":2812:3034   */\n      swap3\n      swap2\n      pop\n      pop\n      jump\t// out\n        /* \"#utility.yul\":3121:3290   */\n    tag_90:\n        /* \"#utility.yul\":3205:3216   */\n      0x00\n        /* \"#utility.yul\":3239:3245   */\n      dup3\n        /* \"#utility.yul\":3234:3237   */\n      dup3\n        /* \"#utility.yul\":3227:3246   */\n      mstore\n        /* \"#utility.yul\":3279:3283   */\n      0x20\n        /* \"#utility.yul\":3274:3277   */\n      dup3\n        /* \"#utility.yul\":3270:3284   */\n      add\n        /* \"#utility.yul\":3255:3284   */\n      swap1\n      pop\n        /* \"#utility.yul\":3121:3290   */\n      swap3\n      swap2\n      pop\n      pop\n      jump\t// out\n        /* \"#utility.yul\":3296:3601   */\n    tag_26:\n        /* \"#utility.yul\":3336:3339   */\n      0x00\n        /* \"#utility.yul\":3355:3375   */\n      tag_112\n        /* \"#utility.yul\":3373:3374   */\n      dup3\n        /* \"#utility.yul\":3355:3375   */\n      tag_96\n      jump\t// in\n    tag_112:\n        /* \"#utility.yul\":3350:3375   */\n      swap2\n      pop\n        /* \"#utility.yul\":3389:3409   */\n      tag_113\n        /* \"#utility.yul\":3407:3408   */\n      dup4\n        /* \"#utility.yul\":3389:3409   */\n      tag_96\n      jump\t// in\n    tag_113:\n        /* \"#utility.yul\":3384:3409   */\n      swap3\n      pop\n        /* \"#utility.yul\":3543:3544   */\n      dup3\n        /* \"#utility.yul\":3475:3541   */\n      0xffffffffffffffffffffffffffffffffffffffffffffffffffffffffffffffff\n        /* \"#utility.yul\":3471:3545   */\n      sub\n        /* \"#utility.yul\":3468:3469   */\n      dup3\n        /* \"#utility.yul\":3465:3546   */\n      gt\n        /* \"#utility.yul\":3462:3569   */\n      iszero\n      tag_114\n      jumpi\n        /* \"#utility.yul\":3549:3567   */\n      tag_115\n      tag_116\n      jump\t// in\n    tag_115:\n        /* \"#utility.yul\":3462:3569   */\n    tag_114:\n        /* \"#utility.yul\":3593:3594   */\n      dup3\n        /* \"#utility.yul\":3590:3591   */\n      dup3\n        /* \"#utility.yul\":3586:3595   */\n      add\n        /* \"#utility.yul\":3579:3595   */\n      swap1\n      pop\n        /* \"#utility.yul\":3296:3601   */\n      swap3\n      swap2\n      pop\n      pop\n      jump\t// out\n        /* \"#utility.yul\":3607:3792   */\n    tag_64:\n        /* \"#utility.yul\":3647:3648   */\n      0x00\n        /* \"#utility.yul\":3664:3684   */\n      tag_118\n        /* \"#utility.yul\":3682:3683   */\n      dup3\n        /* \"#utility.yul\":3664:3684   */\n      tag_96\n      jump\t// in\n    tag_118:\n        /* \"#utility.yul\":3659:3684   */\n      swap2\n      pop\n        /* \"#utility.yul\":3698:3718   */\n      tag_119\n        /* \"#utility.yul\":3716:3717   */\n      dup4\n        /* \"#utility.yul\":3698:3718   */\n      tag_96\n      jump\t// in\n    tag_119:\n        /* \"#utility.yul\":3693:3718   */\n      swap3\n      pop\n        /* \"#utility.yul\":3737:3738   */\n      dup3\n        /* \"#utility.yul\":3727:3762   */\n      tag_120\n      jumpi\n        /* \"#utility.yul\":3742:3760   */\n      tag_121\n      tag_122\n      jump\t// in\n    tag_121:\n        /* \"#utility.yul\":3727:3762   */\n    tag_120:\n        /* \"#utility.yul\":3784:3785   */\n      dup3\n        /* \"#utility.yul\":3781:3782   */\n      dup3\n        /* \"#utility.yul\":3777:3786   */\n      div\n        /* \"#utility.yul\":3772:3786   */\n      swap1\n      pop\n        /* \"#utility.yul\":3607:3792   */\n      swap3\n      swap2\n      pop\n      pop\n      jump\t// out\n        /* \"#utility.yul\":3798:4146   */\n    tag_61:\n        /* \"#utility.yul\":3838:3845   */\n      0x00\n        /* \"#utility.yul\":3861:3881   */\n      tag_124\n        /* \"#utility.yul\":3879:3880   */\n      dup3\n        /* \"#utility.yul\":3861:3881   */\n      tag_96\n      jump\t// in\n    tag_124:\n        /* \"#utility.yul\":3856:3881   */\n      swap2\n      pop\n        /* \"#utility.yul\":3895:3915   */\n      tag_125\n        /* \"#utility.yul\":3913:3914   */\n      dup4\n        /* \"#utility.yul\":3895:3915   */\n      tag_96\n      jump\t// in\n    tag_125:\n        /* \"#utility.yul\":3890:3915   */\n      swap3\n      pop\n        /* \"#utility.yul\":4083:4084   */\n      dup2\n        /* \"#utility.yul\":4015:4081   */\n      0xffffffffffffffffffffffffffffffffffffffffffffffffffffffffffffffff\n        /* \"#utility.yul\":4011:4085   */\n      div\n        /* \"#utility.yul\":4008:4009   */\n      dup4\n        /* \"#utility.yul\":4005:4086   */\n      gt\n        /* \"#utility.yul\":4000:4001   */\n      dup3\n        /* \"#utility.yul\":3993:4002   */\n      iszero\n        /* \"#utility.yul\":3986:4003   */\n      iszero\n        /* \"#utility.yul\":3982:4087   */\n      and\n        /* \"#utility.yul\":3979:4110   */\n      iszero\n      tag_126\n      jumpi\n        /* \"#utility.yul\":4090:4108   */\n      tag_127\n      tag_116\n      jump\t// in\n    tag_127:\n        /* \"#utility.yul\":3979:4110   */\n    tag_126:\n        /* \"#utility.yul\":4138:4139   */\n      dup3\n        /* \"#utility.yul\":4135:4136   */\n      dup3\n        /* \"#utility.yul\":4131:4140   */\n      mul\n        /* \"#utility.yul\":4120:4140   */\n      swap1\n      pop\n        /* \"#utility.yul\":3798:4146   */\n      swap3\n      swap2\n      pop\n      pop\n      jump\t// out\n        /* \"#utility.yul\":4152:4343   */\n    tag_59:\n        /* \"#utility.yul\":4192:4196   */\n      0x00\n        /* \"#utility.yul\":4212:4232   */\n      tag_129\n        /* \"#utility.yul\":4230:4231   */\n      dup3\n        /* \"#utility.yul\":4212:4232   */\n      tag_96\n      jump\t// in\n    tag_129:\n        /* \"#utility.yul\":4207:4232   */\n      swap2\n      pop\n        /* \"#utility.yul\":4246:4266   */\n      tag_130\n        /* \"#utility.yul\":4264:4265   */\n      dup4\n        /* \"#utility.yul\":4246:4266   */\n      tag_96\n      jump\t// in\n    tag_130:\n        /* \"#utility.yul\":4241:4266   */\n      swap3\n      pop\n        /* \"#utility.yul\":4285:4286   */\n      dup3\n        /* \"#utility.yul\":4282:4283   */\n      dup3\n        /* \"#utility.yul\":4279:4287   */\n      lt\n        /* \"#utility.yul\":4276:4310   */\n      iszero\n      tag_131\n      jumpi\n        /* \"#utility.yul\":4290:4308   */\n      tag_132\n      tag_116\n      jump\t// in\n    tag_132:\n        /* \"#utility.yul\":4276:4310   */\n    tag_131:\n        /* \"#utility.yul\":4335:4336   */\n      dup3\n        /* \"#utility.yul\":4332:4333   */\n      dup3\n        /* \"#utility.yul\":4328:4337   */\n      sub\n        /* \"#utility.yul\":4320:4337   */\n      swap1\n      pop\n        /* \"#utility.yul\":4152:4343   */\n      swap3\n      swap2\n      pop\n      pop\n      jump\t// out\n        /* \"#utility.yul\":4349:4445   */\n    tag_86:\n        /* \"#utility.yul\":4386:4393   */\n      0x00\n        /* \"#utility.yul\":4415:4439   */\n      tag_134\n        /* \"#utility.yul\":4433:4438   */\n      dup3\n        /* \"#utility.yul\":4415:4439   */\n      tag_135\n      jump\t// in\n    tag_134:\n        /* \"#utility.yul\":4404:4439   */\n      swap1\n      pop\n        /* \"#utility.yul\":4349:4445   */\n      swap2\n      swap1\n      pop\n      jump\t// out\n        /* \"#utility.yul\":4451:4541   */\n    tag_136:\n        /* \"#utility.yul\":4485:4492   */\n      0x00\n        /* \"#utility.yul\":4528:4533   */\n      dup2\n        /* \"#utility.yul\":4521:4534   */\n      iszero\n        /* \"#utility.yul\":4514:4535   */\n      iszero\n        /* \"#utility.yul\":4503:4535   */\n      swap1\n      pop\n        /* \"#utility.yul\":4451:4541   */\n      swap2\n      swap1\n      pop\n      jump\t// out\n        /* \"#utility.yul\":4547:4673   */\n    tag_135:\n        /* \"#utility.yul\":4584:4591   */\n      0x00\n        /* \"#utility.yul\":4624:4666   */\n      0xffffffffffffffffffffffffffffffffffffffff\n        /* \"#utility.yul\":4617:4622   */\n      dup3\n        /* \"#utility.yul\":4613:4667   */\n      and\n        /* \"#utility.yul\":4602:4667   */\n      swap1\n      pop\n        /* \"#utility.yul\":4547:4673   */\n      swap2\n      swap1\n      pop\n      jump\t// out\n        /* \"#utility.yul\":4679:4756   */\n    tag_96:\n        /* \"#utility.yul\":4716:4723   */\n      0x00\n        /* \"#utility.yul\":4745:4750   */\n      dup2\n        /* \"#utility.yul\":4734:4750   */\n      swap1\n      pop\n        /* \"#utility.yul\":4679:4756   */\n      swap2\n      swap1\n      pop\n      jump\t// out\n        /* \"#utility.yul\":4762:4942   */\n    tag_116:\n        /* \"#utility.yul\":4810:4887   */\n      0x4e487b7100000000000000000000000000000000000000000000000000000000\n        /* \"#utility.yul\":4807:4808   */\n      0x00\n        /* \"#utility.yul\":4800:4888   */\n      mstore\n        /* \"#utility.yul\":4907:4911   */\n      0x11\n        /* \"#utility.yul\":4904:4905   */\n      0x04\n        /* \"#utility.yul\":4897:4912   */\n      mstore\n        /* \"#utility.yul\":4931:4935   */\n      0x24\n        /* \"#utility.yul\":4928:4929   */\n      0x00\n        /* \"#utility.yul\":4921:4936   */\n      revert\n        /* \"#utility.yul\":4948:5128   */\n    tag_122:\n        /* \"#utility.yul\":4996:5073   */\n      0x4e487b7100000000000000000000000000000000000000000000000000000000\n        /* \"#utility.yul\":4993:4994   */\n      0x00\n        /* \"#utility.yul\":4986:5074   */\n      mstore\n        /* \"#utility.yul\":5093:5097   */\n      0x12\n        /* \"#utility.yul\":5090:5091   */\n      0x04\n        /* \"#utility.yul\":5083:5098   */\n      mstore\n        /* \"#utility.yul\":5117:5121   */\n      0x24\n        /* \"#utility.yul\":5114:5115   */\n      0x00\n        /* \"#utility.yul\":5107:5122   */\n      revert\n        /* \"#utility.yul\":5257:5374   */\n    tag_77:\n        /* \"#utility.yul\":5366:5367   */\n      0x00\n        /* \"#utility.yul\":5363:5364   */\n      dup1\n        /* \"#utility.yul\":5356:5368   */\n      revert\n        /* \"#utility.yul\":5380:5600   */\n    tag_92:\n        /* \"#utility.yul\":5520:5554   */\n      0x596f7520686176656e2774207374616b656420616e7920636f696e7320796574\n        /* \"#utility.yul\":5516:5517   */\n      0x00\n        /* \"#utility.yul\":5508:5514   */\n      dup3\n        /* \"#utility.yul\":5504:5518   */\n      add\n        /* \"#utility.yul\":5497:5555   */\n      mstore\n        /* \"#utility.yul\":5589:5592   */\n      0x2e00000000000000000000000000000000000000000000000000000000000000\n        /* \"#utility.yul\":5584:5586   */\n      0x20\n        /* \"#utility.yul\":5576:5582   */\n      dup3\n        /* \"#utility.yul\":5572:5587   */\n      add\n        /* \"#utility.yul\":5565:5593   */\n      mstore\n        /* \"#utility.yul\":5380:5600   */\n      pop\n      jump\t// out\n        /* \"#utility.yul\":5606:5722   */\n    tag_69:\n        /* \"#utility.yul\":5676:5697   */\n      tag_147\n        /* \"#utility.yul\":5691:5696   */\n      dup2\n        /* \"#utility.yul\":5676:5697   */\n      tag_136\n      jump\t// in\n    tag_147:\n        /* \"#utility.yul\":5669:5674   */\n      dup2\n        /* \"#utility.yul\":5666:5698   */\n      eq\n        /* \"#utility.yul\":5656:5716   */\n      tag_148\n      jumpi\n        /* \"#utility.yul\":5712:5713   */\n      0x00\n        /* \"#utility.yul\":5709:5710   */\n      dup1\n        /* \"#utility.yul\":5702:5714   */\n      revert\n        /* \"#utility.yul\":5656:5716   */\n    tag_148:\n        /* \"#utility.yul\":5606:5722   */\n      pop\n      jump\t// out\n        /* \"#utility.yul\":5728:5850   */\n    tag_73:\n        /* \"#utility.yul\":5801:5825   */\n      tag_150\n        /* \"#utility.yul\":5819:5824   */\n      dup2\n        /* \"#utility.yul\":5801:5825   */\n      tag_96\n      jump\t// in\n    tag_150:\n        /* \"#utility.yul\":5794:5799   */\n      dup2\n        /* \"#utility.yul\":5791:5826   */\n      eq\n        /* \"#utility.yul\":5781:5844   */\n      tag_151\n      jumpi\n        /* \"#utility.yul\":5840:5841   */\n      0x00\n        /* \"#utility.yul\":5837:5838   */\n      dup1\n        /* \"#utility.yul\":5830:5842   */\n      revert\n        /* \"#utility.yul\":5781:5844   */\n    tag_151:\n        /* \"#utility.yul\":5728:5850   */\n      pop\n      jump\t// out\n\n    auxdata: 0xa26469706673582212201d2dad13a585f8bc8de4667d231984861a7d67efd54a8ebbbaecdc9873a112b464736f6c63430008070033\n}\n",
				"bytecode": {
					"linkReferences": {},
					"object": "6080604052662386f26fc1000060025534801561001b57600080fd5b50604051610b9b380380610b9b833981810160405281019061003d9190610098565b806000806101000a81548173ffffffffffffffffffffffffffffffffffffffff021916908373ffffffffffffffffffffffffffffffffffffffff16021790555050610113565b600081519050610092816100fc565b92915050565b6000602082840312156100ae576100ad6100f7565b5b60006100bc84828501610083565b91505092915050565b60006100d0826100d7565b9050919050565b600073ffffffffffffffffffffffffffffffffffffffff82169050919050565b600080fd5b610105816100c5565b811461011057600080fd5b50565b610a79806101226000396000f3fe608060405234801561001057600080fd5b506004361061004c5760003560e01c80632def662014610051578063373d61321461005b5780634641257d14610079578063a694fc3a14610083575b600080fd5b61005961009f565b005b610063610280565b60405161007091906107da565b60405180910390f35b6100816102ca565b005b61009d600480360381019061009891906106ec565b6103f4565b005b6000600160003373ffffffffffffffffffffffffffffffffffffffff1673ffffffffffffffffffffffffffffffffffffffff1681526020019081526020016000206040518060400160405290816000820154815260200160018201548152505090506000816000015111610148576040517f08c379a000000000000000000000000000000000000000000000000000000000815260040161013f906107ba565b60405180910390fd5b6040518060400160405280600081526020016000815250905080600160003373ffffffffffffffffffffffffffffffffffffffff1673ffffffffffffffffffffffffffffffffffffffff168152602001908152602001600020600082015181600001556020820151816001015590505060008054906101000a900473ffffffffffffffffffffffffffffffffffffffff1673ffffffffffffffffffffffffffffffffffffffff1663a9059cbb336101fe84610654565b846000015161020d9190610806565b6040518363ffffffff1660e01b815260040161022a929190610791565b602060405180830381600087803b15801561024457600080fd5b505af1158015610258573d6000803e3d6000fd5b505050506040513d601f19601f8201168201806040525081019061027c91906106bf565b5050565b6000600160003373ffffffffffffffffffffffffffffffffffffffff1673ffffffffffffffffffffffffffffffffffffffff16815260200190815260200160002060000154905090565b6000600160003373ffffffffffffffffffffffffffffffffffffffff1673ffffffffffffffffffffffffffffffffffffffff168152602001908152602001600020905060006103378260405180604001604052908160008201548152602001600182015481525050610654565b905042826001018190555060008054906101000a900473ffffffffffffffffffffffffffffffffffffffff1673ffffffffffffffffffffffffffffffffffffffff1663a9059cbb33836040518363ffffffff1660e01b815260040161039d929190610791565b602060405180830381600087803b1580156103b757600080fd5b505af11580156103cb573d6000803e3d6000fd5b505050506040513d601f19601f820116820180604052508101906103ef91906106bf565b505050565b6000600160003373ffffffffffffffffffffffffffffffffffffffff1673ffffffffffffffffffffffffffffffffffffffff16815260200190815260200160002060405180604001604052908160008201548152602001600182015481525050905060008160000151111561052057600061046e82610654565b905060008054906101000a900473ffffffffffffffffffffffffffffffffffffffff1673ffffffffffffffffffffffffffffffffffffffff1663a9059cbb33836040518363ffffffff1660e01b81526004016104cb929190610791565b602060405180830381600087803b1580156104e557600080fd5b505af11580156104f9573d6000803e3d6000fd5b505050506040513d601f19601f8201168201806040525081019061051d91906106bf565b50505b60008054906101000a900473ffffffffffffffffffffffffffffffffffffffff1673ffffffffffffffffffffffffffffffffffffffff166323b872dd3330856040518463ffffffff1660e01b815260040161057d9392919061075a565b602060405180830381600087803b15801561059757600080fd5b505af11580156105ab573d6000803e3d6000fd5b505050506040513d601f19601f820116820180604052508101906105cf91906106bf565b50600060405180604001604052808360000151856105ed9190610806565b815260200142815250905080600160003373ffffffffffffffffffffffffffffffffffffffff1673ffffffffffffffffffffffffffffffffffffffff1681526020019081526020016000206000820151816000015560208201518160010155905050505050565b6000603c82602001514261066891906108e7565b600254846000015161067a919061088d565b610684919061088d565b61068e919061085c565b9050919050565b6000815190506106a481610a15565b92915050565b6000813590506106b981610a2c565b92915050565b6000602082840312156106d5576106d46109c1565b5b60006106e384828501610695565b91505092915050565b600060208284031215610702576107016109c1565b5b6000610710848285016106aa565b91505092915050565b6107228161091b565b82525050565b60006107356021836107f5565b9150610740826109c6565b604082019050919050565b61075481610959565b82525050565b600060608201905061076f6000830186610719565b61077c6020830185610719565b610789604083018461074b565b949350505050565b60006040820190506107a66000830185610719565b6107b3602083018461074b565b9392505050565b600060208201905081810360008301526107d381610728565b9050919050565b60006020820190506107ef600083018461074b565b92915050565b600082825260208201905092915050565b600061081182610959565b915061081c83610959565b9250827fffffffffffffffffffffffffffffffffffffffffffffffffffffffffffffffff0382111561085157610850610963565b5b828201905092915050565b600061086782610959565b915061087283610959565b92508261088257610881610992565b5b828204905092915050565b600061089882610959565b91506108a383610959565b9250817fffffffffffffffffffffffffffffffffffffffffffffffffffffffffffffffff04831182151516156108dc576108db610963565b5b828202905092915050565b60006108f282610959565b91506108fd83610959565b9250828210156109105761090f610963565b5b828203905092915050565b600061092682610939565b9050919050565b60008115159050919050565b600073ffffffffffffffffffffffffffffffffffffffff82169050919050565b6000819050919050565b7f4e487b7100000000000000000000000000000000000000000000000000000000600052601160045260246000fd5b7f4e487b7100000000000000000000000000000000000000000000000000000000600052601260045260246000fd5b600080fd5b7f596f7520686176656e2774207374616b656420616e7920636f696e732079657460008201527f2e00000000000000000000000000000000000000000000000000000000000000602082015250565b610a1e8161092d565b8114610a2957600080fd5b50565b610a3581610959565b8114610a4057600080fd5b5056fea26469706673582212201d2dad13a585f8bc8de4667d231984861a7d67efd54a8ebbbaecdc9873a112b464736f6c63430008070033",
					"opcodes": "PUSH1 0x80 PUSH1 0x40 MSTORE PUSH7 0x2386F26FC10000 PUSH1 0x2 SSTORE CALLVALUE DUP1 ISZERO PUSH2 0x1B JUMPI PUSH1 0x0 DUP1 REVERT JUMPDEST POP PUSH1 0x40 MLOAD PUSH2 0xB9B CODESIZE SUB DUP1 PUSH2 0xB9B DUP4 CODECOPY DUP2 DUP2 ADD PUSH1 0x40 MSTORE DUP2 ADD SWAP1 PUSH2 0x3D SWAP2 SWAP1 PUSH2 0x98 JUMP JUMPDEST DUP1 PUSH1 0x0 DUP1 PUSH2 0x100 EXP DUP2 SLOAD DUP2 PUSH20 0xFFFFFFFFFFFFFFFFFFFFFFFFFFFFFFFFFFFFFFFF MUL NOT AND SWAP1 DUP4 PUSH20 0xFFFFFFFFFFFFFFFFFFFFFFFFFFFFFFFFFFFFFFFF AND MUL OR SWAP1 SSTORE POP POP PUSH2 0x113 JUMP JUMPDEST PUSH1 0x0 DUP2 MLOAD SWAP1 POP PUSH2 0x92 DUP2 PUSH2 0xFC JUMP JUMPDEST SWAP3 SWAP2 POP POP JUMP JUMPDEST PUSH1 0x0 PUSH1 0x20 DUP3 DUP5 SUB SLT ISZERO PUSH2 0xAE JUMPI PUSH2 0xAD PUSH2 0xF7 JUMP JUMPDEST JUMPDEST PUSH1 0x0 PUSH2 0xBC DUP5 DUP3 DUP6 ADD PUSH2 0x83 JUMP JUMPDEST SWAP2 POP POP SWAP3 SWAP2 POP POP JUMP JUMPDEST PUSH1 0x0 PUSH2 0xD0 DUP3 PUSH2 0xD7 JUMP JUMPDEST SWAP1 POP SWAP2 SWAP1 POP JUMP JUMPDEST PUSH1 0x0 PUSH20 0xFFFFFFFFFFFFFFFFFFFFFFFFFFFFFFFFFFFFFFFF DUP3 AND SWAP1 POP SWAP2 SWAP1 POP JUMP JUMPDEST PUSH1 0x0 DUP1 REVERT JUMPDEST PUSH2 0x105 DUP2 PUSH2 0xC5 JUMP JUMPDEST DUP2 EQ PUSH2 0x110 JUMPI PUSH1 0x0 DUP1 REVERT JUMPDEST POP JUMP JUMPDEST PUSH2 0xA79 DUP1 PUSH2 0x122 PUSH1 0x0 CODECOPY PUSH1 0x0 RETURN INVALID PUSH1 0x80 PUSH1 0x40 MSTORE CALLVALUE DUP1 ISZERO PUSH2 0x10 JUMPI PUSH1 0x0 DUP1 REVERT JUMPDEST POP PUSH1 0x4 CALLDATASIZE LT PUSH2 0x4C JUMPI PUSH1 0x0 CALLDATALOAD PUSH1 0xE0 SHR DUP1 PUSH4 0x2DEF6620 EQ PUSH2 0x51 JUMPI DUP1 PUSH4 0x373D6132 EQ PUSH2 0x5B JUMPI DUP1 PUSH4 0x4641257D EQ PUSH2 0x79 JUMPI DUP1 PUSH4 0xA694FC3A EQ PUSH2 0x83 JUMPI JUMPDEST PUSH1 0x0 DUP1 REVERT JUMPDEST PUSH2 0x59 PUSH2 0x9F JUMP JUMPDEST STOP JUMPDEST PUSH2 0x63 PUSH2 0x280 JUMP JUMPDEST PUSH1 0x40 MLOAD PUSH2 0x70 SWAP2 SWAP1 PUSH2 0x7DA JUMP JUMPDEST PUSH1 0x40 MLOAD DUP1 SWAP2 SUB SWAP1 RETURN JUMPDEST PUSH2 0x81 PUSH2 0x2CA JUMP JUMPDEST STOP JUMPDEST PUSH2 0x9D PUSH1 0x4 DUP1 CALLDATASIZE SUB DUP2 ADD SWAP1 PUSH2 0x98 SWAP2 SWAP1 PUSH2 0x6EC JUMP JUMPDEST PUSH2 0x3F4 JUMP JUMPDEST STOP JUMPDEST PUSH1 0x0 PUSH1 0x1 PUSH1 0x0 CALLER PUSH20 0xFFFFFFFFFFFFFFFFFFFFFFFFFFFFFFFFFFFFFFFF AND PUSH20 0xFFFFFFFFFFFFFFFFFFFFFFFFFFFFFFFFFFFFFFFF AND DUP2 MSTORE PUSH1 0x20 ADD SWAP1 DUP2 MSTORE PUSH1 0x20 ADD PUSH1 0x0 KECCAK256 PUSH1 0x40 MLOAD DUP1 PUSH1 0x40 ADD PUSH1 0x40 MSTORE SWAP1 DUP2 PUSH1 0x0 DUP3 ADD SLOAD DUP2 MSTORE PUSH1 0x20 ADD PUSH1 0x1 DUP3 ADD SLOAD DUP2 MSTORE POP POP SWAP1 POP PUSH1 0x0 DUP2 PUSH1 0x0 ADD MLOAD GT PUSH2 0x148 JUMPI PUSH1 0x40 MLOAD PUSH32 0x8C379A000000000000000000000000000000000000000000000000000000000 DUP2 MSTORE PUSH1 0x4 ADD PUSH2 0x13F SWAP1 PUSH2 0x7BA JUMP JUMPDEST PUSH1 0x40 MLOAD DUP1 SWAP2 SUB SWAP1 REVERT JUMPDEST PUSH1 0x40 MLOAD DUP1 PUSH1 0x40 ADD PUSH1 0x40 MSTORE DUP1 PUSH1 0x0 DUP2 MSTORE PUSH1 0x20 ADD PUSH1 0x0 DUP2 MSTORE POP SWAP1 POP DUP1 PUSH1 0x1 PUSH1 0x0 CALLER PUSH20 0xFFFFFFFFFFFFFFFFFFFFFFFFFFFFFFFFFFFFFFFF AND PUSH20 0xFFFFFFFFFFFFFFFFFFFFFFFFFFFFFFFFFFFFFFFF AND DUP2 MSTORE PUSH1 0x20 ADD SWAP1 DUP2 MSTORE PUSH1 0x20 ADD PUSH1 0x0 KECCAK256 PUSH1 0x0 DUP3 ADD MLOAD DUP2 PUSH1 0x0 ADD SSTORE PUSH1 0x20 DUP3 ADD MLOAD DUP2 PUSH1 0x1 ADD SSTORE SWAP1 POP POP PUSH1 0x0 DUP1 SLOAD SWAP1 PUSH2 0x100 EXP SWAP1 DIV PUSH20 0xFFFFFFFFFFFFFFFFFFFFFFFFFFFFFFFFFFFFFFFF AND PUSH20 0xFFFFFFFFFFFFFFFFFFFFFFFFFFFFFFFFFFFFFFFF AND PUSH4 0xA9059CBB CALLER PUSH2 0x1FE DUP5 PUSH2 0x654 JUMP JUMPDEST DUP5 PUSH1 0x0 ADD MLOAD PUSH2 0x20D SWAP2 SWAP1 PUSH2 0x806 JUMP JUMPDEST PUSH1 0x40 MLOAD DUP4 PUSH4 0xFFFFFFFF AND PUSH1 0xE0 SHL DUP2 MSTORE PUSH1 0x4 ADD PUSH2 0x22A SWAP3 SWAP2 SWAP1 PUSH2 0x791 JUMP JUMPDEST PUSH1 0x20 PUSH1 0x40 MLOAD DUP1 DUP4 SUB DUP2 PUSH1 0x0 DUP8 DUP1 EXTCODESIZE ISZERO DUP1 ISZERO PUSH2 0x244 JUMPI PUSH1 0x0 DUP1 REVERT JUMPDEST POP GAS CALL ISZERO DUP1 ISZERO PUSH2 0x258 JUMPI RETURNDATASIZE PUSH1 0x0 DUP1 RETURNDATACOPY RETURNDATASIZE PUSH1 0x0 REVERT JUMPDEST POP POP POP POP PUSH1 0x40 MLOAD RETURNDATASIZE PUSH1 0x1F NOT PUSH1 0x1F DUP3 ADD AND DUP3 ADD DUP1 PUSH1 0x40 MSTORE POP DUP2 ADD SWAP1 PUSH2 0x27C SWAP2 SWAP1 PUSH2 0x6BF JUMP JUMPDEST POP POP JUMP JUMPDEST PUSH1 0x0 PUSH1 0x1 PUSH1 0x0 CALLER PUSH20 0xFFFFFFFFFFFFFFFFFFFFFFFFFFFFFFFFFFFFFFFF AND PUSH20 0xFFFFFFFFFFFFFFFFFFFFFFFFFFFFFFFFFFFFFFFF AND DUP2 MSTORE PUSH1 0x20 ADD SWAP1 DUP2 MSTORE PUSH1 0x20 ADD PUSH1 0x0 KECCAK256 PUSH1 0x0 ADD SLOAD SWAP1 POP SWAP1 JUMP JUMPDEST PUSH1 0x0 PUSH1 0x1 PUSH1 0x0 CALLER PUSH20 0xFFFFFFFFFFFFFFFFFFFFFFFFFFFFFFFFFFFFFFFF AND PUSH20 0xFFFFFFFFFFFFFFFFFFFFFFFFFFFFFFFFFFFFFFFF AND DUP2 MSTORE PUSH1 0x20 ADD SWAP1 DUP2 MSTORE PUSH1 0x20 ADD PUSH1 0x0 KECCAK256 SWAP1 POP PUSH1 0x0 PUSH2 0x337 DUP3 PUSH1 0x40 MLOAD DUP1 PUSH1 0x40 ADD PUSH1 0x40 MSTORE SWAP1 DUP2 PUSH1 0x0 DUP3 ADD SLOAD DUP2 MSTORE PUSH1 0x20 ADD PUSH1 0x1 DUP3 ADD SLOAD DUP2 MSTORE POP POP PUSH2 0x654 JUMP JUMPDEST SWAP1 POP TIMESTAMP DUP3 PUSH1 0x1 ADD DUP2 SWAP1 SSTORE POP PUSH1 0x0 DUP1 SLOAD SWAP1 PUSH2 0x100 EXP SWAP1 DIV PUSH20 0xFFFFFFFFFFFFFFFFFFFFFFFFFFFFFFFFFFFFFFFF AND PUSH20 0xFFFFFFFFFFFFFFFFFFFFFFFFFFFFFFFFFFFFFFFF AND PUSH4 0xA9059CBB CALLER DUP4 PUSH1 0x40 MLOAD DUP4 PUSH4 0xFFFFFFFF AND PUSH1 0xE0 SHL DUP2 MSTORE PUSH1 0x4 ADD PUSH2 0x39D SWAP3 SWAP2 SWAP1 PUSH2 0x791 JUMP JUMPDEST PUSH1 0x20 PUSH1 0x40 MLOAD DUP1 DUP4 SUB DUP2 PUSH1 0x0 DUP8 DUP1 EXTCODESIZE ISZERO DUP1 ISZERO PUSH2 0x3B7 JUMPI PUSH1 0x0 DUP1 REVERT JUMPDEST POP GAS CALL ISZERO DUP1 ISZERO PUSH2 0x3CB JUMPI RETURNDATASIZE PUSH1 0x0 DUP1 RETURNDATACOPY RETURNDATASIZE PUSH1 0x0 REVERT JUMPDEST POP POP POP POP PUSH1 0x40 MLOAD RETURNDATASIZE PUSH1 0x1F NOT PUSH1 0x1F DUP3 ADD AND DUP3 ADD DUP1 PUSH1 0x40 MSTORE POP DUP2 ADD SWAP1 PUSH2 0x3EF SWAP2 SWAP1 PUSH2 0x6BF JUMP JUMPDEST POP POP POP JUMP JUMPDEST PUSH1 0x0 PUSH1 0x1 PUSH1 0x0 CALLER PUSH20 0xFFFFFFFFFFFFFFFFFFFFFFFFFFFFFFFFFFFFFFFF AND PUSH20 0xFFFFFFFFFFFFFFFFFFFFFFFFFFFFFFFFFFFFFFFF AND DUP2 MSTORE PUSH1 0x20 ADD SWAP1 DUP2 MSTORE PUSH1 0x20 ADD PUSH1 0x0 KECCAK256 PUSH1 0x40 MLOAD DUP1 PUSH1 0x40 ADD PUSH1 0x40 MSTORE SWAP1 DUP2 PUSH1 0x0 DUP3 ADD SLOAD DUP2 MSTORE PUSH1 0x20 ADD PUSH1 0x1 DUP3 ADD SLOAD DUP2 MSTORE POP POP SWAP1 POP PUSH1 0x0 DUP2 PUSH1 0x0 ADD MLOAD GT ISZERO PUSH2 0x520 JUMPI PUSH1 0x0 PUSH2 0x46E DUP3 PUSH2 0x654 JUMP JUMPDEST SWAP1 POP PUSH1 0x0 DUP1 SLOAD SWAP1 PUSH2 0x100 EXP SWAP1 DIV PUSH20 0xFFFFFFFFFFFFFFFFFFFFFFFFFFFFFFFFFFFFFFFF AND PUSH20 0xFFFFFFFFFFFFFFFFFFFFFFFFFFFFFFFFFFFFFFFF AND PUSH4 0xA9059CBB CALLER DUP4 PUSH1 0x40 MLOAD DUP4 PUSH4 0xFFFFFFFF AND PUSH1 0xE0 SHL DUP2 MSTORE PUSH1 0x4 ADD PUSH2 0x4CB SWAP3 SWAP2 SWAP1 PUSH2 0x791 JUMP JUMPDEST PUSH1 0x20 PUSH1 0x40 MLOAD DUP1 DUP4 SUB DUP2 PUSH1 0x0 DUP8 DUP1 EXTCODESIZE ISZERO DUP1 ISZERO PUSH2 0x4E5 JUMPI PUSH1 0x0 DUP1 REVERT JUMPDEST POP GAS CALL ISZERO DUP1 ISZERO PUSH2 0x4F9 JUMPI RETURNDATASIZE PUSH1 0x0 DUP1 RETURNDATACOPY RETURNDATASIZE PUSH1 0x0 REVERT JUMPDEST POP POP POP POP PUSH1 0x40 MLOAD RETURNDATASIZE PUSH1 0x1F NOT PUSH1 0x1F DUP3 ADD AND DUP3 ADD DUP1 PUSH1 0x40 MSTORE POP DUP2 ADD SWAP1 PUSH2 0x51D SWAP2 SWAP1 PUSH2 0x6BF JUMP JUMPDEST POP POP JUMPDEST PUSH1 0x0 DUP1 SLOAD SWAP1 PUSH2 0x100 EXP SWAP1 DIV PUSH20 0xFFFFFFFFFFFFFFFFFFFFFFFFFFFFFFFFFFFFFFFF AND PUSH20 0xFFFFFFFFFFFFFFFFFFFFFFFFFFFFFFFFFFFFFFFF AND PUSH4 0x23B872DD CALLER ADDRESS DUP6 PUSH1 0x40 MLOAD DUP5 PUSH4 0xFFFFFFFF AND PUSH1 0xE0 SHL DUP2 MSTORE PUSH1 0x4 ADD PUSH2 0x57D SWAP4 SWAP3 SWAP2 SWAP1 PUSH2 0x75A JUMP JUMPDEST PUSH1 0x20 PUSH1 0x40 MLOAD DUP1 DUP4 SUB DUP2 PUSH1 0x0 DUP8 DUP1 EXTCODESIZE ISZERO DUP1 ISZERO PUSH2 0x597 JUMPI PUSH1 0x0 DUP1 REVERT JUMPDEST POP GAS CALL ISZERO DUP1 ISZERO PUSH2 0x5AB JUMPI RETURNDATASIZE PUSH1 0x0 DUP1 RETURNDATACOPY RETURNDATASIZE PUSH1 0x0 REVERT JUMPDEST POP POP POP POP PUSH1 0x40 MLOAD RETURNDATASIZE PUSH1 0x1F NOT PUSH1 0x1F DUP3 ADD AND DUP3 ADD DUP1 PUSH1 0x40 MSTORE POP DUP2 ADD SWAP1 PUSH2 0x5CF SWAP2 SWAP1 PUSH2 0x6BF JUMP JUMPDEST POP PUSH1 0x0 PUSH1 0x40 MLOAD DUP1 PUSH1 0x40 ADD PUSH1 0x40 MSTORE DUP1 DUP4 PUSH1 0x0 ADD MLOAD DUP6 PUSH2 0x5ED SWAP2 SWAP1 PUSH2 0x806 JUMP JUMPDEST DUP2 MSTORE PUSH1 0x20 ADD TIMESTAMP DUP2 MSTORE POP SWAP1 POP DUP1 PUSH1 0x1 PUSH1 0x0 CALLER PUSH20 0xFFFFFFFFFFFFFFFFFFFFFFFFFFFFFFFFFFFFFFFF AND PUSH20 0xFFFFFFFFFFFFFFFFFFFFFFFFFFFFFFFFFFFFFFFF AND DUP2 MSTORE PUSH1 0x20 ADD SWAP1 DUP2 MSTORE PUSH1 0x20 ADD PUSH1 0x0 KECCAK256 PUSH1 0x0 DUP3 ADD MLOAD DUP2 PUSH1 0x0 ADD SSTORE PUSH1 0x20 DUP3 ADD MLOAD DUP2 PUSH1 0x1 ADD SSTORE SWAP1 POP POP POP POP POP JUMP JUMPDEST PUSH1 0x0 PUSH1 0x3C DUP3 PUSH1 0x20 ADD MLOAD TIMESTAMP PUSH2 0x668 SWAP2 SWAP1 PUSH2 0x8E7 JUMP JUMPDEST PUSH1 0x2 SLOAD DUP5 PUSH1 0x0 ADD MLOAD PUSH2 0x67A SWAP2 SWAP1 PUSH2 0x88D JUMP JUMPDEST PUSH2 0x684 SWAP2 SWAP1 PUSH2 0x88D JUMP JUMPDEST PUSH2 0x68E SWAP2 SWAP1 PUSH2 0x85C JUMP JUMPDEST SWAP1 POP SWAP2 SWAP1 POP JUMP JUMPDEST PUSH1 0x0 DUP2 MLOAD SWAP1 POP PUSH2 0x6A4 DUP2 PUSH2 0xA15 JUMP JUMPDEST SWAP3 SWAP2 POP POP JUMP JUMPDEST PUSH1 0x0 DUP2 CALLDATALOAD SWAP1 POP PUSH2 0x6B9 DUP2 PUSH2 0xA2C JUMP JUMPDEST SWAP3 SWAP2 POP POP JUMP JUMPDEST PUSH1 0x0 PUSH1 0x20 DUP3 DUP5 SUB SLT ISZERO PUSH2 0x6D5 JUMPI PUSH2 0x6D4 PUSH2 0x9C1 JUMP JUMPDEST JUMPDEST PUSH1 0x0 PUSH2 0x6E3 DUP5 DUP3 DUP6 ADD PUSH2 0x695 JUMP JUMPDEST SWAP2 POP POP SWAP3 SWAP2 POP POP JUMP JUMPDEST PUSH1 0x0 PUSH1 0x20 DUP3 DUP5 SUB SLT ISZERO PUSH2 0x702 JUMPI PUSH2 0x701 PUSH2 0x9C1 JUMP JUMPDEST JUMPDEST PUSH1 0x0 PUSH2 0x710 DUP5 DUP3 DUP6 ADD PUSH2 0x6AA JUMP JUMPDEST SWAP2 POP POP SWAP3 SWAP2 POP POP JUMP JUMPDEST PUSH2 0x722 DUP2 PUSH2 0x91B JUMP JUMPDEST DUP3 MSTORE POP POP JUMP JUMPDEST PUSH1 0x0 PUSH2 0x735 PUSH1 0x21 DUP4 PUSH2 0x7F5 JUMP JUMPDEST SWAP2 POP PUSH2 0x740 DUP3 PUSH2 0x9C6 JUMP JUMPDEST PUSH1 0x40 DUP3 ADD SWAP1 POP SWAP2 SWAP1 POP JUMP JUMPDEST PUSH2 0x754 DUP2 PUSH2 0x959 JUMP JUMPDEST DUP3 MSTORE POP POP JUMP JUMPDEST PUSH1 0x0 PUSH1 0x60 DUP3 ADD SWAP1 POP PUSH2 0x76F PUSH1 0x0 DUP4 ADD DUP7 PUSH2 0x719 JUMP JUMPDEST PUSH2 0x77C PUSH1 0x20 DUP4 ADD DUP6 PUSH2 0x719 JUMP JUMPDEST PUSH2 0x789 PUSH1 0x40 DUP4 ADD DUP5 PUSH2 0x74B JUMP JUMPDEST SWAP5 SWAP4 POP POP POP POP JUMP JUMPDEST PUSH1 0x0 PUSH1 0x40 DUP3 ADD SWAP1 POP PUSH2 0x7A6 PUSH1 0x0 DUP4 ADD DUP6 PUSH2 0x719 JUMP JUMPDEST PUSH2 0x7B3 PUSH1 0x20 DUP4 ADD DUP5 PUSH2 0x74B JUMP JUMPDEST SWAP4 SWAP3 POP POP POP JUMP JUMPDEST PUSH1 0x0 PUSH1 0x20 DUP3 ADD SWAP1 POP DUP2 DUP2 SUB PUSH1 0x0 DUP4 ADD MSTORE PUSH2 0x7D3 DUP2 PUSH2 0x728 JUMP JUMPDEST SWAP1 POP SWAP2 SWAP1 POP JUMP JUMPDEST PUSH1 0x0 PUSH1 0x20 DUP3 ADD SWAP1 POP PUSH2 0x7EF PUSH1 0x0 DUP4 ADD DUP5 PUSH2 0x74B JUMP JUMPDEST SWAP3 SWAP2 POP POP JUMP JUMPDEST PUSH1 0x0 DUP3 DUP3 MSTORE PUSH1 0x20 DUP3 ADD SWAP1 POP SWAP3 SWAP2 POP POP JUMP JUMPDEST PUSH1 0x0 PUSH2 0x811 DUP3 PUSH2 0x959 JUMP JUMPDEST SWAP2 POP PUSH2 0x81C DUP4 PUSH2 0x959 JUMP JUMPDEST SWAP3 POP DUP3 PUSH32 0xFFFFFFFFFFFFFFFFFFFFFFFFFFFFFFFFFFFFFFFFFFFFFFFFFFFFFFFFFFFFFFFF SUB DUP3 GT ISZERO PUSH2 0x851 JUMPI PUSH2 0x850 PUSH2 0x963 JUMP JUMPDEST JUMPDEST DUP3 DUP3 ADD SWAP1 POP SWAP3 SWAP2 POP POP JUMP JUMPDEST PUSH1 0x0 PUSH2 0x867 DUP3 PUSH2 0x959 JUMP JUMPDEST SWAP2 POP PUSH2 0x872 DUP4 PUSH2 0x959 JUMP JUMPDEST SWAP3 POP DUP3 PUSH2 0x882 JUMPI PUSH2 0x881 PUSH2 0x992 JUMP JUMPDEST JUMPDEST DUP3 DUP3 DIV SWAP1 POP SWAP3 SWAP2 POP POP JUMP JUMPDEST PUSH1 0x0 PUSH2 0x898 DUP3 PUSH2 0x959 JUMP JUMPDEST SWAP2 POP PUSH2 0x8A3 DUP4 PUSH2 0x959 JUMP JUMPDEST SWAP3 POP DUP2 PUSH32 0xFFFFFFFFFFFFFFFFFFFFFFFFFFFFFFFFFFFFFFFFFFFFFFFFFFFFFFFFFFFFFFFF DIV DUP4 GT DUP3 ISZERO ISZERO AND ISZERO PUSH2 0x8DC JUMPI PUSH2 0x8DB PUSH2 0x963 JUMP JUMPDEST JUMPDEST DUP3 DUP3 MUL SWAP1 POP SWAP3 SWAP2 POP POP JUMP JUMPDEST PUSH1 0x0 PUSH2 0x8F2 DUP3 PUSH2 0x959 JUMP JUMPDEST SWAP2 POP PUSH2 0x8FD DUP4 PUSH2 0x959 JUMP JUMPDEST SWAP3 POP DUP3 DUP3 LT ISZERO PUSH2 0x910 JUMPI PUSH2 0x90F PUSH2 0x963 JUMP JUMPDEST JUMPDEST DUP3 DUP3 SUB SWAP1 POP SWAP3 SWAP2 POP POP JUMP JUMPDEST PUSH1 0x0 PUSH2 0x926 DUP3 PUSH2 0x939 JUMP JUMPDEST SWAP1 POP SWAP2 SWAP1 POP JUMP JUMPDEST PUSH1 0x0 DUP2 ISZERO ISZERO SWAP1 POP SWAP2 SWAP1 POP JUMP JUMPDEST PUSH1 0x0 PUSH20 0xFFFFFFFFFFFFFFFFFFFFFFFFFFFFFFFFFFFFFFFF DUP3 AND SWAP1 POP SWAP2 SWAP1 POP JUMP JUMPDEST PUSH1 0x0 DUP2 SWAP1 POP SWAP2 SWAP1 POP JUMP JUMPDEST PUSH32 0x4E487B7100000000000000000000000000000000000000000000000000000000 PUSH1 0x0 MSTORE PUSH1 0x11 PUSH1 0x4 MSTORE PUSH1 0x24 PUSH1 0x0 REVERT JUMPDEST PUSH32 0x4E487B7100000000000000000000000000000000000000000000000000000000 PUSH1 0x0 MSTORE PUSH1 0x12 PUSH1 0x4 MSTORE PUSH1 0x24 PUSH1 0x0 REVERT JUMPDEST PUSH1 0x0 DUP1 REVERT JUMPDEST PUSH32 0x596F7520686176656E2774207374616B656420616E7920636F696E7320796574 PUSH1 0x0 DUP3 ADD MSTORE PUSH32 0x2E00000000000000000000000000000000000000000000000000000000000000 PUSH1 0x20 DUP3 ADD MSTORE POP JUMP JUMPDEST PUSH2 0xA1E DUP2 PUSH2 0x92D JUMP JUMPDEST DUP2 EQ PUSH2 0xA29 JUMPI PUSH1 0x0 DUP1 REVERT JUMPDEST POP JUMP JUMPDEST PUSH2 0xA35 DUP2 PUSH2 0x959 JUMP JUMPDEST DUP2 EQ PUSH2 0xA40 JUMPI PUSH1 0x0 DUP1 REVERT JUMPDEST POP JUMP INVALID LOG2 PUSH5 0x6970667358 0x22 SLT KECCAK256 SAR 0x2D 0xAD SGT 0xA5 DUP6 0xF8 0xBC DUP14 0xE4 PUSH7 0x7D231984861A7D PUSH8 0xEFD54A8EBBBAECDC SWAP9 PUSH20 0xA112B464736F6C63430008070033000000000000 "
				},
				"gasEstimates": {
					"creation": {
						"codeDepositCost": "536200",
						"executionCost": "infinite",
						"totalCost": "infinite"
					},
					"external": {
						"harvest()": "infinite",
						"stake(uint256)": "infinite",
						"stakedAmount()": "2532",
						"unstake()": "infinite"
					},
					"internal": {
						"calcReward(struct StakeTB.stakeInfo memory)": "infinite"
					}
				},
				"methodIdentifiers": {
					"harvest()": "4641257d",
					"stake(uint256)": "a694fc3a",
					"stakedAmount()": "373d6132",
					"unstake()": "2def6620"
				}
			},
			"storageLayout": {
				"storage": [
					{
						"astId": 83,
						"contract": "contracts/StakeTB.sol:StakeTB",
						"label": "_token",
						"offset": 0,
						"slot": "0",
						"type": "t_contract(IERC20)77"
					},
					{
						"astId": 88,
						"contract": "contracts/StakeTB.sol:StakeTB",
						"label": "_addressToStakeInfo",
						"offset": 0,
						"slot": "1",
						"type": "t_mapping(t_address,t_struct(stakeInfo)100_storage)"
					},
					{
						"astId": 95,
						"contract": "contracts/StakeTB.sol:StakeTB",
						"label": "_rewardRatePerMinute",
						"offset": 0,
						"slot": "2",
						"type": "t_uint256"
					}
				],
				"types": {
					"t_address": {
						"encoding": "inplace",
						"label": "address",
						"numberOfBytes": "20"
					},
					"t_contract(IERC20)77": {
						"encoding": "inplace",
						"label": "contract IERC20",
						"numberOfBytes": "20"
					},
					"t_mapping(t_address,t_struct(stakeInfo)100_storage)": {
						"encoding": "mapping",
						"key": "t_address",
						"label": "mapping(address => struct StakeTB.stakeInfo)",
						"numberOfBytes": "32",
						"value": "t_struct(stakeInfo)100_storage"
					},
					"t_struct(stakeInfo)100_storage": {
						"encoding": "inplace",
						"label": "struct StakeTB.stakeInfo",
						"members": [
							{
								"astId": 97,
								"contract": "contracts/StakeTB.sol:StakeTB",
								"label": "amount",
								"offset": 0,
								"slot": "0",
								"type": "t_uint256"
							},
							{
								"astId": 99,
								"contract": "contracts/StakeTB.sol:StakeTB",
								"label": "startTime",
								"offset": 0,
								"slot": "1",
								"type": "t_uint256"
							}
						],
						"numberOfBytes": "64"
					},
					"t_uint256": {
						"encoding": "inplace",
						"label": "uint256",
						"numberOfBytes": "32"
					}
				}
			},
			"userdoc": {
				"kind": "user",
				"methods": {},
				"version": 1
			}
		}
	}
}